:020000040800F2
:100000000000022045880A08C9880A082952060803
:10001000C9880A08C9880A08C9880A0800000000B7
:10002000000000000000000000000000C9880A086D
:10003000C9880A0800000000C9880A0809310508B3
:10004000C9880A08C9880A08C9880A08C9880A0824
:10005000C9880A08C9880A08F5EE0408F9EE0408F8
:10006000FDEE040801EF040805EF0408994C0408AC
:10007000AD4C0408C14C0408D54C0408E94C0408F4
:10008000FD4C0408114D0408C9880A08C9880A08EB
:10009000C9880A08C9880A08C9880A0809EF040833
:1000A000C9880A08C9880A08C9880A084D5004087E
:1000B000615004087550040889500408793E04080A
:1000C0006D3E0408AD3E0408A13E0408C9880A0834
:1000D000C9880A08A95A0408B55A0408C15A04086C
:1000E0000DEF0408C9880A0800000000C550040884
:1000F000155104083D510408B1500408254D040869
:10010000C9880A08F16B04089D500408C9880A08C8
:10011000CD5A0408C9880A08C9880A08D17E04088B
:10012000394D04084D4D0408614D0408754D04080F
:10013000894D0408C9880A08C9880A08C9880A08B4
:1001400000000000000000000000000000000000AF
:100150009D4D0408B14D0408C54D0408D95A040842
:10016000E13E0408D53E0408C9880A08C9880A087F
:10017000C9880A08C9880A08C9880A080000000056
:10018000C9880A08C9880A08E55A0408F15A040807
:10019000C9880A08C9880A08C9880A08C9880A08D3
:1001A000C9880A08C9880A08C9880A08C9880A08C3
:1001B000C9880A08C9880A08C9880A08C9880A08B3
:1001C000C9880A08C9880A08C9880A08C9880A08A3
:1001D000C9880A08116D0408C9880A08C9880A086C
:1001E000C9880A08C9880A08C9880A08C9880A0883
:1001F000C9880A08C9880A08C9880A08C9880A0873
:10020000C9880A08C9880A08C9880A08C9880A0862
:10021000D9500408ED50040801510408C9880A089F
:10022000C9880A08C9880A08C9880A0800000000A5
:10023000F56B0408C9880A0800000000C9880A088C
:10024000C9880A08C9880A08C9880A08C9880A0822
:10025000C9880A08C9880A08C9880A08C9880A0812
:10026000C9880A08C9880A08C9880A08C9880A0802
:10027000C9880A08C9880A08C9880A080000000055
:10028000C9880A0800000000C9880A0800000000A8
:0802900000000000C9880A0803
:08029800D8820A0001000000F9
:1002A000804F01240208000003011F00A04F012419
:1002B0000112000000017600C04F01240229010054
:1002C00000002C00E04F01240132000000003C003F
:0C02D00000500124013500000000200057
:020000040804EE
:10000000836B5A6D12F0500F5A6D1AD1196842F471
:1000100000725A650A6812F0080FCA6816D012F406
:10002000406F15D1CA68920412D45A6D22F48072BE
:100030005A655A6DD1040BD45A6D42F001025A65CB
:100040007047D20604D4DB6CDB6C18479007ECD009
:10005000704700BF704700BF836B5A6D42F040028B
:100060005A659A6D42F004029A657047026838B585
:10007000524B9A4248D018339A4245D03033504CB4
:100080005049A24218BF9A4204F148040CBF012310
:1000900000238A4208BF43F001033031A24208BF67
:1000A00043F0010330348A4208BF43F0010301F5F5
:1000B0005C71A24208BF43F0010304F55C748A42FC
:1000C00008BF43F001033031A24208BF43F00103EF
:1000D00030348A4208BF43F001033031A24208BFE6
:1000E00043F0010330348A4208BF43F0010330314A
:1000F000A24208BF43F001038A4208BF43F0010354
:1001000013B9314B9A4208D1042380F83530136873
:1001100023F001031360002038BD2C4B2C4D1168D7
:10012000AA4218BF9A422B4C21F00E0105F13C0562
:100130000CBF012300231160A24208BF43F001035A
:1001400011682834AA4208BF43F0010321F00101DD
:10015000A24208BF43F0010314341160A24208BF59
:1001600043F001031C498A4208BF43F0010313B95D
:100170001A4B9A4217D10123856DD0E917142268D2
:1001800001F01F0122F480728B4022606B60C36E0D
:10019000D0E91921516033B11A68D0E91C1422F456
:1001A00080721A604C6000210122036D80F83410C7
:1001B00080F83520002BAED09847ACE71000024005
:1001C0004000024070000240B80402401C54025833
:1001D000085402583054025880540258945402581B
:1001E000002280F8422090F84130292B04D090F86A
:1001F00041302A2B18D070474FF0280C212301687A
:1002000080F841C0036390F8413003EA0C03634572
:100210000B680CBF6FF0420C6FF0F20C03EA0C039A
:100220000B6080F84020704710B422232824016816
:1002300080F84140036390F841302340A3420C68AA
:100240000CBF6FF044036FF0F40323405DF8044BE0
:100250000B6080F8402070470023202210B4174C18
:100260004363C462036380F8412080F842304B0747
:1002700012D50268436A526A1A70436A028D0133CA
:1002800043624AB1438D013A013B02859BB24385EB
:10029000436C43F0040343640368102490F8412046
:1002A000002190F841201A6822F0FE021A60DC61F9
:1002B0005DF8044B80F84010704700BF0000FFFF5E
:1002C00010B54FF0000C90F84130444A044680F8D5
:1002D00042C0283BC262A0F82AC0022B426C41EA0D
:1002E000020141643CD890F841204FF0280C90F86E
:1002F000413002F0280203F02803282A0CBF4622CE
:10030000F622282B03684FF000000CBFD1436FF09A
:10031000F6011A680A401A60314A84F841C06263E3
:1003200020631A6812F4804231D01A68A06B22F45C
:1003300080421A6098B100222A4B036584F840205D
:1003400090F83520022A3CD080224265BDE810405A
:10035000184794F84130602B3AD084F8401010BD13
:10036000036890F8412090F841201A6822F0FE02BC
:100370001A6090F84120602A02D0202280F84120A3
:100380000022226362631A6812F48042CDD1196898
:1003900011F40041DDD01968E06B21F400411960CF
:1003A0000028DCD00F4B036584F8402090F83520FE
:1003B000022AC9D1FFF75AFE0028D0D0E06B036DA6
:1003C000C4E7FFF753FE0028C9D0A06B036DBDE75B
:1003D000202384F8401084F8413010BD0000FFFF56
:1003E00065040408F106040803689A69196810B4E2
:1003F000D4052ED50C061FD5416C4FF4807441F006
:10040000010141645105DC6128D5416C4FF48064E1
:10041000920541F008014164DC6106D5426C4FF45D
:10042000007142F002024264D961416C11F00B0F7D
:100430000CD15DF8044B70475405F6D49405F4D5FF
:100440000906EBD4416C11F00B0FF2D05DF8044BB0
:1004500036E75405F2D50906D7D4E6E79205DDD490
:10046000E3E700BF2DE9F84390F84030C66A012B5E
:1004700000F0D980012304460D46914680F84030B3
:10048000880602D512F0200F62D1EF0621D519F0AF
:10049000100F1ED0638D9BB2002B40F0AA8094F801
:1004A0004130B6F1007FDBB202D1282B00F017817A
:1004B00094F841301022292B2368DA6103D116F514
:1004C000803F40F0D2800023184684F84030BDE8D9
:1004D000F88369071DD42A0703D519F0080F40F0E7
:1004E0009880AB07EFD519F0020FECD0638D9BB26B
:1004F000002B00F0A380616A236811F8010B228DA4
:100500009862638D013A6162013B22859BB26385EB
:10051000D9E719F0040FDED0638D9BB26BB122686E
:10052000636A526A1A70638D616A228D013B0131E0
:10053000013A9BB2616222856385638D9BB2002B79
:10054000C1D116F5803FBED02046FFF749FEBAE77D
:1005500023682021644A1F68D96194F8411094F8F7
:100560004110186820F0FE001860586840F4004000
:1005700058605968114059609969890701D500216F
:1005800099629969CA0703D4996941F00101996197
:1005900078044BD5A16B19B10868416889B26185AF
:1005A0006A0749D5596A25F00408636A1970636AB5
:1005B00001336362238D002B50D1638D9BB21BB13D
:1005C000636C43F0040363640023236384F84230C4
:1005D000676C6363002F56D1E36ADFF810814345EF
:1005E00031D194F84130202384F8407084F84130B0
:1005F0004BE723681022DA61636C43F00403636401
:1006000036F080737FF45FAF616C2046FFF758FED1
:1006100059E794F8413003F02803282B236840D091
:100620000822DA614FE70220BDE8F8833904B7D524
:10063000E16B0029B0D1B3E7A846BEE736F080737E
:100640007FF441AF80E72046FFF7CAFD2023C4F8BE
:100650002C8084F8407084F8413016E7013B2385F4
:10066000638D013B9BB26385A7E79A69950701D526
:1006700000229A629A69D0073FF566AF9A6942F004
:1006800001029A6160E7616C2046FFF719FE94F859
:100690004130282B7FF4F9AE41462046FFF7DCFDC0
:1006A000F3E6E1689A69022998699A68DD6811D1D0
:1006B000C2F3C21282EA104212F006020AD1A16C01
:1006C0000131A164A16C02297FF4FDAE0821A2646E
:1006D000D961F8E61A6822F0B8021A60F3E62946F2
:1006E0002046FFF7B9FDEEE600E800FE0000FFFF40
:1006F000836B0022D3E90E0102650A6593F841205D
:10070000602A02D1202283F841207047026870B429
:10071000D4072DD597490B69896A03F03803102B4C
:1007200000F0F180182B00F0E9804368B3F5803FBA
:1007300000F05581002B00F05B81B3F5A02F8D4BAD
:10074000196800F0328221F480311960196821F4AF
:1007500080211960884B41F2883C864C1D6804E07A
:100760001968491B614500F2408121688E03F7D565
:1007700091072DD57F490B69896A13F0380300F082
:10078000A680182B00F0A080C3687A4C002B00F0E4
:100790006981216821F019011943774B21601D6897
:1007A00004E01968491B022900F21F8121684907EA
:1007B000F7D5724941F203030968B3EB114F63683F
:1007C0000169C0F0238223F47C3343EA0133636080
:1007D000D5064CD4150713D54369664C002B00F0A1
:1007E0009E80616F644B41F0010161671D6804E008
:1007F0001968491B022900F2F880616F8907F7D553
:10080000940613D583695B4C002B00F007812168A7
:10081000594B41F4805121601D6804E01968491B5F
:10082000022900F2E28021688904F7D5540700F11B
:10083000A780436AC3B14F490A6902F03802182AF7
:1008400000F085810A68022B4B4B22F080720A600F
:1008500000F01E81186804E01A68121A022A00F2D9
:10086000C4800A689201F7D4002070BC70474149E7
:100870000B69896A03F03803082B63D0182B5DD00D
:10088000C3693C4C002B00F0D88021683A4B41F002
:10089000800121601D6804E01968491B022900F2EB
:1008A000A4802168C905F7D5344941F203030968DA
:1008B000B3EB114FC0F097816368016A23F0F843EE
:1008C00043EA8163636085E78D077FF45DAF294B61
:1008D0001B685C0701D5C368F3B1284941F20303E3
:1008E00004690968B3EB114F22494B68C0F0B4802A
:1008F00023F47C3343EA04334B6069E701F00301DE
:1009000002297FF412AF1B4B1B689B037FF530AFAE
:100910004368002B7FF42CAF012070BC7047616FDF
:10092000154B21F0010161671D6803E01968491B3F
:1009300002295AD8616F8E07F8D461E701F00301EC
:1009400001299DD10B4B1B68DC0502D5C369802BA7
:10095000E2D10A4941F20303046A0968B3EB114F7B
:100960000449C0F08E804B6823F0F84343EA846367
:100970004B602FE700440258002900240010005C5F
:100980009D499E4B0A6842F480720A601C6803E02D
:100990001A68121B642A28D80A68D505F8D5826817
:1009A000012A00F03981002A00F00781052A944AC3
:1009B000116F00F0378121F001011167116F21F0F3
:1009C000040111671D6841F288348D4903E01A68FB
:1009D000521BA24209D80A6F9207F8D529E7884925
:1009E0000B6843F480330B60B4E6032070BC70479F
:1009F000834C41F28835814B216821F4803121609C
:100A0000216821F4802121601E6803E01968891B98
:100A1000A942EAD821688903F8D4A9E62168774B6E
:100A200021F4805121601D6803E01968491B0229E7
:100A3000DBD821688E04F8D4F8E621686F4B21F0EA
:100A4000800121601D6803E01968491B0229CCD888
:100A50002168CE05F8D4BDE623F0FE4343EA0463E3
:100A60004B60B5E62168654B21F0010121601D68EE
:100A700003E01968491B0229B7D821684E07F8D44A
:100A8000A6E6CB6823F07C5343EA0463CB60A1E67F
:100A90001C6803E01A68121B022AA6D80A6895018E
:100AA000F8D48C6A574A2240846A2243C46A42EAD4
:100AB00004128A62D0E90D24013A013C5202240456
:100AC00092B204F4FE042243046B013CC4F3080414
:100AD0002243C46B013C240604F0FE4422430A6313
:100AE000CA6A22F00102CA62474A4D6B846C2A40EE
:100AF00042EAC4024A63CA6A046C22F00C0222432E
:100B00003F4CCA62CA6A406C22F002020243CA62C7
:100B1000CA6A42F48032CA62CA6A42F40032CA62C5
:100B2000CA6A42F48022CA62CA6A42F00102CA62F8
:100B30000A6842F080720A60196804E01A68521A62
:100B4000022A3FF652AF22689001F7D58CE6012BBE
:100B50008A6A0C6B3FF4E0AE02F00303816A8B42B9
:100B60007FF4DAAEC2F30512C36A9A427FF4D4AEC0
:100B7000036BC4F30802013B9A427FF4CDAE436B92
:100B8000C4F34622013B9A427FF4C6AE836BC4F3A2
:100B90000642013B9A427FF4BFAEC36BC4F30664C6
:100BA000013B9C423FF460AEB6E641F480211960FF
:100BB000196841F480311960CCE5114941F288355A
:100BC0000A6F22F001020A670A6F22F004020A6724
:100BD0001C6804E01A68121BAA423FF606AF0A6FAF
:100BE0009607F7D425E6E368016A23F07C5343EACD
:100BF0000163E360EEE500BF0048025800290024CD
:100C0000004402580CFCFFFF0700FFFF23F0FE43E7
:100C100043EA01636360DBE506490A6F42F00102C3
:100C20000A67CFE641F004011167116F41F001013D
:100C30001167C7E600440258454B30B49A6A9C6A73
:100C4000DD6A14F47C7F596BC4F3051038D0C1F30E
:100C5000CC0105F0010502F0030205FB01F1012AB8
:100C600007EE901AB8EEE77A02D0022A4ED04AB3C5
:100C700007EE900ADFED376AF8EEE77A1B6B86EE37
:100C8000A76A9FED355AC3F3080306EE903AF7EED4
:100C9000005AF8EEE66AE7EE056A76EEA56A66EEB9
:100CA000266A2B4B1B6BC3F34623013307EE903AA6
:100CB000B8EEE77AC6EE877AFCEEE77A17EE900A8E
:100CC00030BC70471A68920627D5196807EE900A5B
:100CD000224AF7EE005A1B6BC1F3C101F8EEE77A26
:100CE0009FED1D5AC3F30803CA4006EE903A06EE84
:100CF000102AF8EEE66AB8EEC66AE7EE056A86EEF6
:100D0000277A76EEA56A66EE876ACAE707EE900A4A
:100D1000DFED136AF8EEE77AB0E707EE900A9FED91
:100D2000115A1B6BB7EE006AF8EEE77ADFED0A5A4C
:100D3000C3F30803C5EE276A07EE903AF8EEE77AA8
:100D4000E7EE257A77EE867A66EEA76AA9E700BF16
:100D5000004402580024744A000000390090D00377
:100D60000024F44A0024744C836ADA0710B406D5D0
:100D70000168C46A4A6822F4003222434A609C0730
:100D800006D50168046B4A6822F4803222434A6027
:100D9000590706D50168446B4A6822F48022224331
:100DA0004A601A0706D50168846B4A6822F400423B
:100DB00022434A60DC0606D50168C46B8A6822F4C7
:100DC000805222438A60990606D50168046C8A68BD
:100DD00022F4005222438A605A060AD50168446C04
:100DE0004A68B4F5801F22F4801242EA04024A6085
:100DF0000BD01B0606D50268C16C536823F4002390
:100E00000B4353605DF8044B70474A68846C22F4CE
:100E1000C00222434A60ECE70022836BA3F85E2005
:100E2000A3F85620704700BF134B41F2883C134A89
:100E300001461B68A2FB0332520A0CFB02F2531E4E
:100E400042B14A6B013B12F0450F01D0920404D528
:100E5000581CF6D14FF0004070474B6B5B0707D42E
:100E6000486B10F0010014BF0123054B8B637047E2
:100E7000042318468B63704700000024D34D621092
:100E8000C5002000036942681F2B70B430D9A3F15C
:100E9000200520215468A940214227D08169087C7F
:100EA000022835D048681F2BC9681B4D4E68016960
:100EB000C1F30324194951F8244015F804C005680A
:100EC00056F80C4024F0010446F80C40407901EB40
:100ED0004001098C01F4F050E96821EA0001E96061
:100EE00010D9A3F1200120238B40D36070BC704740
:100EF0002021146899402142F8D08169087C022899
:100F0000D0D105E0202101FA03F370BC9360704753
:100F100000200874C6E700BFB8E50A0858E40A08CC
:100F2000436BDA69910670B5044614D5586AE36AD2
:100F3000C0B2002B00F0F080216B9847636B1A68F9
:100F400022F480721A609A6822F001029A609A690B
:100F500042F008029A61DA69D20701D501221A62C9
:100F6000DA69960701D502221A62DA69550701D5B6
:100F700004221A62DA69100701D508221A62DA69B6
:100F8000110613D5D4F8B420212A0FD0D4E90912C0
:100F90008A4200F0CD80A169895C0132C9B29962B0
:100FA0002169B2FBF1F001FB1022A262DA6952065C
:100FB00000D470BDDA6940F60F0C1D6804F13400EE
:100FC00012EA0C0F996826D1960607D505F020067F
:100FD00001F0805C56EA0C0640F0C980D60202D5CA
:100FE0004E0200F1C980160606D501F4000105F095
:100FF0008006314340F0A8805106DAD56A06D8D57C
:101000001A682020002122F040021A60C4F8B400BF
:10101000C4F8A41070BD604E01EA060C5F4E05EAEC
:10102000060E5EEA0C06D9D0D60709D5EE0507D51F
:1010300001261E62D4F8BC6046F00106C4F8BC600C
:10104000960700F18680560709D5CE0707D50426F6
:101050001E62D4F8BC6046F00206C4F8BC601607F5
:101060000CD505F0200656EA0C0607D008261E62AD
:10107000D4F8BC6046F00806C4F8BC6016050AD572
:101080006E0108D54FF400661E62D4F8BC6046F0CD
:101090002006C4F8BC60D4F8BC60002E89D0960647
:1010A0000BD505F0200501F0805155EA010204D06E
:1010B000D4F8A0200AB19047636BD4F8BC109A68AA
:1010C00001F0280102F040020A4362D01968202092
:1010D000334A21F49071196099680A4000219A609E
:1010E000C4F8B8009A68C4F8A01052067FF561AF42
:1010F0009A68D4F8AC0022F040029A6000283FF4CD
:1011000058AF90F83520274B022A036538D080224B
:101110004265BDE870401847E3696269D054E369ED
:10112000E2680133B3FBF2F102FB1133E36105E73F
:101130000022A4F88A201A6822F080021A60DA6974
:1011400052067FF536AF35E7D4F8A430002BE0D156
:101150002FE7CE0783D502261E62D4F8BC6046F086
:101160000406C4F8BC6056077FF579AF6FE7D4F882
:10117000A030002BCDD11CE74FF480121A6270BD55
:10118000FEF774FF00283FF414AFD4F8AC00036DF1
:10119000BFE7C4F8BC2070BD0100001020010004AE
:1011A000FEFFFFEF190E0408D0E907239A4201D38E
:1011B000D01A7047C0681044C01A7047D0E909239C
:1011C0009A4204D30069D31A0138C01A70470069E3
:1011D00002440138D31AC01A704700BFD0E909028F
:1011E000101AB0FA80F04009704700BF016A034648
:1011F00040694A1C405CD9688A4228BF00221A62B2
:10120000704700BF436A826910B4D154436A416B8E
:10121000046901330A68A34228BF00235DF8044B28
:1012200042F0800243620A60704700BF436BD86996
:1012300010F0100002D0102201201A62704700BF87
:10124000704700BF704700BF014B5868704700BF30
:1012500000290024044B93F8A402A0F10300B0FA83
:1012600080F04009704700BF00290024012380F866
:1012700049307047064BD3E9B702431E9042A3EBB7
:1012800002038CBF0020012003EB0030704700BF39
:101290000029002401F00F01D0F8D022C1EBC101D8
:1012A00002EB8102D0E9AE30D2F8142203F50371CB
:1012B00010B5C468D3F80402C3F80C22A04700207C
:1012C00010BD00BFD0F8BC3283B110B5D0F8B84221
:1012D00094F80002FF2807D09B68214694F8012269
:1012E0009847FF2384F80032002010BD002070478B
:1012F0000346432201481A80704700BF04000024BF
:101300000346432201481A80704700BF480000246A
:101310000346432201481A80704700BF8C00002416
:1013200003460A2201481A80704700BFD0000024FB
:10133000064B4FF0120C064A506803F11402A1F854
:1013400000C002280CBF184610467047DC0000247D
:1013500050400058042301480B80704704010024CA
:10136000214BD3F80028D3F8080830B512184FF0F5
:101370001A040C8001D11D4830BD1C494FF0000EED
:10138000D3F804088C467546130FB2F1204F0EF1C6
:10139000020E8CF8035003F1300403F137034FEAD7
:1013A00002120CF1020C34BF8CF800408CF80030B3
:1013B000BEF1100FE8D100221446030FB0F1204F08
:1013C00002F10202CC7403F1300C03F137034FEA4F
:1013D000001001F1020134BF81F810C00B74082A1B
:1013E000EBD1024830BD00BF00E0F11F080100242E
:1013F00000207047212810B505D0222830D02028A1
:1014000014D0002010BD0029FBD0072AF9D11B4BB6
:1014100093F82801D3F8244193F8292193F82A312D
:10142000087100200C604A718B7110BD0029E8D052
:10143000072AE6D1114B0C79114A086883F8284134
:10144000D2F8E4224C798979C3F8240183F8294140
:1014500083F82A11002AD4D0014600209047D0E713
:101460000029CED0022ACCD1054BD3F8E832002B8C
:10147000C7D0098800209847C3E700BF00000024B8
:10148000002900242DE9F047046982B0C3681C409C
:1014900044D0814688464FF0004501F1500701F1E4
:1014A0003806B4FA84F325FA03F21B3BD243144006
:1014B000C9F81020B8F1000F5DD0042B2CD8DFE85C
:1014C00003F050463B300300D8F81030D9F82CA078
:1014D00033B19B6823B11FFA8AF108F108009847DD
:1014E000D8F8283033B19B6823B11FFA8AF108F18C
:1014F00020009847D8F840302BB19B681BB11FFAE9
:101500008AF130469847D8F858302BB19B681BB108
:101510001FFA8AF138469847002CC2D102B0BDE8C4
:10152000F087D8F8103008F10800D9F834105B685B
:101530009847002CB5D1F1E7D8F8283008F1200001
:10154000D9F838105B689847002CAAD1E6E7D8F89C
:1015500040303046D9F83C105B689847002CA0D149
:10156000DCE7D8F858303846D9F840105B6898471F
:10157000002C96D1D2E7042B07D8DFE803F003193B
:10158000140F0A00D9F840300193019B002C88D138
:10159000C4E7D9F82C300193019BF7E7D9F8343030
:1015A0000193019BF2E7D9F838300193019BEDE7F5
:1015B000D9F83C300193019BE8E700BF214938B5D9
:1015C0004A68D1F8EC3253B1002AFCD013F8014B31
:1015D000013AC1F8EC324A6012B1204638BDFEE74C
:1015E000D1F8C0020028F8D00D7ED1F8D832D0F85A
:1015F0000402ADB91A690121C3F830524FF40075E5
:10160000012AA3F81812C3F8240203F50671C3F8DF
:101610002C5214D01868D2B265F00AF9204638BDB1
:10162000C3F8302201211A694025A3F8181203F5E6
:101630000671012AC3F82402C3F82C52EAD1C3F878
:101640002802E7E700290024D0F8B82270B5002A64
:101650003CD001EB810300EB8303DC692CB9002350
:101660001C46C2F81432204670BDD0F8D062C1EBDF
:10167000C10506EB85056D6CB4FBF5FC05FB1C454F
:10168000002DECD1DD6101F07F0301F00F04012298
:1016900003EB83031C2100EB830001FB0461C4EB1B
:1016A000C403C5613C3106EB83039D6483F83C4071
:1016B00083F83D20C3E914553269012AD2B208BF2C
:1016C000DD6430682CB965F0A9F9CCE70224204626
:1016D00070BD002465F0ACF8C5E700BFF8B50C4E4E
:1016E00096F8A432032B00D0F8BD0D461446D6F868
:1016F000F07208E008F07CFAD6F8F032241A0544BB
:10170000DB1B322BF0D8002C21462846F2DCF8BD3A
:1017100000290024F8B590F848305D1C0344EDB270
:1017200080F8485083F8341090F84930012B02D1EA
:10173000132D00D8F8BD002380F84830002DF9D0D3
:101740000B4F97F8A432032BF4D1D7F8F06200F1D5
:10175000340401E0002DEDD02946204608F048FA77
:10176000D7F8F0322D1A04449B1B322BF2D9F8BD66
:1017700000290024F8B5002390F84850A0F848301C
:1017800005B9F8BD0B4F97F8A432032BF9D1D7F860
:10179000F06200F1340401E0002DF2D02946204629
:1017A00008F026FAD7F8F0322D1A04449B1B322B8E
:1017B000F2D9F8BD00290024F8B5037C0446002BBB
:1017C0004BD14FF4007302228121D0F8D00264F093
:1017D0003BFF01254FF4007329460222D4F8D002C2
:1017E0000127E56264F030FF082303228221D4F848
:1017F000D002C4F86C5164F027FF4FF407702764DF
:101800006CF056FC0546C4F8B802002846D0D4F85F
:10181000BC321B6898470022267CC5F81422D4F8F5
:10182000D032D5F80402C5F8182206B3C3F8302226
:1018300040241A6903F50671C3F824020026012A20
:10184000A3F81872D2B2C3F82C4208BFC3F828021A
:10185000186864F0EDFF3046F8BD40230222812174
:10186000D0F8D00264F0F0FE01254023B4E71A69F5
:101870004FF40074C3F8240203F50671BA42A3F8CA
:101880001872D2B2C3F8306208BFC3F82802C3F896
:101890002C42186864F0CCFF3046F8BD3E46DAE7CB
:1018A00070B5D0F8D05240F20112044695F8BC331E
:1018B000A5F85820012B09D001222868114685F887
:1018C000BC2365F02DF9002385F8BC33D4F8D05241
:1018D00000260121E66295F8BC33A5F818128B4268
:1018E00007D03246286885F8BC1365F019F985F8E9
:1018F000BC63D4F8D05200264FF48172C4F86C61F6
:1019000095F8BC33A5F87420012B08D001220221E0
:10191000286885F8BC2365F003F985F8BC630025C9
:10192000D4F8B83225644BB1D4F8BC325B68984720
:10193000D4F8B8026CF0C4FBC4F8B852002070BDF3
:101940002DE9F0410B7884B000270D4613F06006B6
:101950000446D0F8B8828DF80D70ADF80E702CD01A
:10196000202E30D1CA88002A3CD01B0640F1898045
:10197000D0F8BC32414668789B6898470223EA88D1
:101980004FF48071C4F89432D4F8D032C4E90722FD
:101990001A651A69998703F13C01012AC3F8488046
:1019A0005F6501D1C3F84C8000261868D2B265F09B
:1019B00035F8304604B0BDE8F0814B780A2B3AD0B8
:1019C0000B2B59D0C3B1D4F8D0028021022601904C
:1019D00064F0D4FE0021019864F0D0FE304604B0DB
:1019E000BDE8F081D0F8BC32164648789B6898472D
:1019F000304604B0BDE8F08190F89C22032AE2D181
:101A0000D0F8D00202220026C4F8942200F13C0152
:101A1000C4E9072202654FF48074026943650DF141
:101A20000E03012A84878364D2B208BFC3640068AE
:101A300064F0F4FFD2E790F89C32032BC3D1D0F8C6
:101A4000D03201220221C0E90722C0F894124FF4DB
:101A500080711A650DF10D02998703F13C019A64BA
:101A60001A695E65012A02D10DF10D00D864D2B267
:101A7000186864F0D3FFB1E790F89C32032BADD027
:101A8000A1E74B7888F8012288F800320323C0F8D8
:101A90009432D0F8D032C0E95722C3F8102203F5AF
:101AA000FE711A69C3F80882012AC3F81472A3F8F8
:101AB000FC7108BFC3F80C8276E700BF08B520B9F7
:101AC000044861F073FB044808BD044861F06EFBF4
:101AD000014808BD6C770B08F42B002490770B08A5
:101AE000024808B561F062FB014808BDB4770B08F5
:101AF000F42B0024024808B561F058FB014808BDEA
:101B0000BC770B08F42B0024024808B561F04EFBAB
:101B1000014808BDC8770B08F42B002470B5124E9D
:101B2000124A3368A2FB03239B09013BB3F1807F78
:101B30000FD24FF0E0220E4900240F2853614FF0DE
:101B4000F003054681F823304FF0070394611361D9
:101B500001D9012070BD01464FF0FF3062F098F8C6
:101B60002046C6F82C5170BD00000024D34D6210F1
:101B700000ED00E0034A0130116813685B1A8342EC
:101B8000FBD37047002900240268354B354930B437
:101B9000354D364CAA4218BF9A420CBF0123002390
:101BA0008A4208BF43F001033031A24208BF43F02C
:101BB000010330348A4208BF43F001033031A242AE
:101BC00008BF43F0010330348A4208BF43F00103E9
:101BD00001F55C71A24208BF43F0010304F55C7497
:101BE0008A4208BF43F001033031A24208BF43F0EC
:101BF000010330348A4208BF43F001033031A2426E
:101C000008BF43F0010330348A4208BF43F00103A8
:101C10003031A24208BF43F001038A4208BF43F0BB
:101C2000010313B9124B9A4215D1D3B21149124C88
:101C3000103BA1FB03515F2B104BC1F3021103EAD0
:101C40000203214488BF043391F828108365C165DD
:101C5000184630BC704722F0FF038365F8E700BFE9
:101C6000100002404000024028000240580002409C
:101C7000B8040240ABAAAAAA58E40A0800FCFFFF75
:101C80002DE9F04F0D6883B0002D00F0D5800023C2
:101C9000DFF8688201229A4012EA050C00F0C78042
:101CA0004E6826F01009B9F1020F40F0C88003F029
:101CB00007044FEAD30E4FF00F0A4FEA840900EBF6
:101CC0008E0E0AFA09FADEF8204024EA0A0A0C69A4
:101CD00004FA09F406F0030944EA0A04CEF82040A5
:101CE0004FEA430E0324D0F800A009FA0EF904FAD3
:101CF0000EF42AEA040AE44349EA0A09C0F800900B
:101D0000D0F808A0CF6804EA0A0A07FA0EF949EAEF
:101D10000A09C0F80890C6F30019D0F804A009FA1F
:101D200003F92AEA020249EA02024260C268F700A5
:101D300004EA02048A6802FA0EF242EA0402C2606D
:101D400075D5644C23F0030E03F00309D4F8F42096
:101D5000C6444FEA890942F00202C4F8F420D4F8DC
:101D6000F42002F002020192019A0F22DEF80840EC
:101D700002FA09F224EA0202574CA04225D004F5E7
:101D80008064A0427BD0554CA0427ED0544CA042EF
:101D90006FD0544CA04200F08480534CA04200F01D
:101DA0008680524CA04276D0514CA04200F08580F3
:101DB000504CA04200F087804F4CA0420CBF092439
:101DC0000A2404FA09F942EA0902CEF808204FF081
:101DD000B0426FEA0C0EF403D2F880204FF0B0440A
:101DE00054BF0EEA02024CEA0202C4F88020B20399
:101DF000D4F884404FF0B04254BF0EEA04044CEAD9
:101E00000404F702C2F8844014684FF0B04254BF93
:101E10000EEA04044CEA04041460B40252684FF061
:101E2000B04454BF0EEA02024CEA0202626001337F
:101E300035FA03F27FF42EAF03B0BDE8F08F4FEA1E
:101E4000430E0324D0F800B006F0030A04FA0EF49F
:101E500009F1FF390AFA0EFA2BEA040BB9F1010F66
:101E60006FEA04044AEA0B0AC0F800A03FF65EAF2E
:101E700046E7032404FA09F942EA0902A5E7012426
:101E800004FA09F942EA09029FE7022404FA09F96F
:101E900042EA090299E7062404FA09F942EA09022A
:101EA00093E7042404FA09F942EA09028DE70524BC
:101EB00004FA09F942EA090287E7072404FA09F952
:101EC00042EA090281E7082404FA09F942EA090210
:101ED0007BE700BF00440258000002580008025887
:101EE000000C025800100258001402580018025842
:101EF000001C025800200258002402580004005818
:101F00000C4A136903F03803102B04D0182B0DD0A2
:101F10001BB1094870470948704713689B0607D5ED
:101F200013680748C3F3C103D8407047FEF784BE67
:101F3000034870470044025800093D0000127A002F
:101F40000090D003184A136903F03803102B10B522
:101F50001AD0182B23D0CBB114481349144A8B69DB
:101F6000144CC3F30323134493F8303003F01F03DE
:101F7000D84020608B6903F00F031A4492F8303088
:101F800003F01F03D84010BD0B48E6E713689B061B
:101F900008D513680948C3F3C103D840DDE7FEF74D
:101FA0004BFEDAE70548D8E70044025800093D0037
:101FB00058E40A080000002400127A000090D003C0
:101FC000584B70B4996A9D6ADE6A15F47C3FC5F37C
:101FD0000532DC6B5CD0C4F3CC04C6F3001601F010
:101FE000030106FB04F4012907EE904AB8EEE77AF4
:101FF00003D0022975D000294FD007EE902ADFEDDB
:102000004A6AF8EEE77A9B6B86EEA76A9FED475A1D
:10201000C3F3080306EE903AF7EE005AF8EEE66ACC
:10202000E7EE056A76EEA56A66EE266A3D4AB7EEE9
:10203000006A936BC3F3462307EE103AB8EEC77AF3
:1020400070BC37EE067AC6EE877AFCEEE77AC0ED12
:10205000007A936BC3F3064307EE103AB8EEC77AE3
:1020600037EE067AC6EE877AFCEEE77AC0ED017AA3
:10207000936BC3F3066307EE903AF8EEE77A77EED8
:10208000867A86EEA77ABCEEC77A80ED027A704730
:1020900070BCC0E90022826070471968890627D5A4
:1020A0001C6807EE902A2249F7EE005A9B6BC4F396
:1020B000C102F8EEE77A9FED1D5AC3F30803D14041
:1020C00006EE903A06EE101AF8EEE66AB8EEC66A28
:1020D000E7EE056A86EE277A76EEA56A66EE876AEF
:1020E000A4E707EE902ADFED136AF8EEE77A8AE7B5
:1020F00007EE902A9FED105A9B6BB7EE006AF8EE40
:10210000E77ADFED0A5AC3F30803C5EE276A07EE44
:10211000903AF8EEE77AE7EE257A77EE867A66EE81
:10212000A76A83E7004402580024744A000000397B
:102130000090D0030024F44A0024744C584B70B42F
:10214000996A9D6ADE6A15F07C7FC5F305525C6C66
:102150005CD0C4F3CC04C6F3002601F0030106FBF7
:1021600004F4012907EE904AB8EEE77A03D0022979
:1021700075D000294FD007EE902ADFED4A6AF8EEBD
:10218000E77A1B6C86EEA76A9FED475AC3F30803F4
:1021900006EE903AF7EE005AF8EEE66AE7EE056AC8
:1021A00076EEA56A66EE266A3D4AB7EE006A136CC3
:1021B000C3F3462307EE103AB8EEC77A70BC37EE89
:1021C000067AC6EE877AFCEEE77AC0ED007A136CE9
:1021D000C3F3064307EE103AB8EEC77A37EE067A35
:1021E000C6EE877AFCEEE77AC0ED017A136CC3F392
:1021F000066307EE903AF8EEE77A77EE867A86EE97
:10220000A77ABCEEC77A80ED027A704770BCC0E94D
:102210000022826070471968890627D51C6807EE7E
:10222000902A2249F7EE005A1B6CC4F3C102F8EE63
:10223000E77A9FED1D5AC3F30803D14006EE903AAA
:1022400006EE101AF8EEE66AB8EEC66AE7EE056A20
:1022500086EE277A76EEA56A66EE876AA4E707EE31
:10226000902ADFED136AF8EEE77A8AE707EE902A04
:102270009FED105A1B6CB7EE006AF8EEE77ADFEDBF
:102280000A5AC3F30803C5EE276A07EE903AF8EE40
:10229000E77AE7EE257A77EE867A66EEA76A83E735
:1022A000004402580024744A000000390090D00312
:1022B0000024F44A0024744C2DE9F041826804465D
:1022C00086B02368D0E904101D680A43616E02439A
:1022D000E06902430A4394492940944D0A43E16866
:1022E000AB421A605A6822F4405242EA0102A169E4
:1022F0005A6000F0A280226A9D6811438C4A666A87
:102300002A4011439960DA6A22F00F023243DA62FE
:10231000884A934225D0884A934258D0874A9342AC
:1023200000F04482864A934200F0BB82854A934281
:1023300000F0F080844A934200F0BD82834A9342C9
:1023400000F0EF85824A934200F0EA8201250023E3
:102350004FF0011228462367C4E91A2306B0BDE8EE
:10236000F0817C4B5B6D03F03803282BEED87A4A62
:10237000134493F84050B0F5004F35D0202D00F2B3
:10238000EB81202D00F2BA80DFE815F0AF01770174
:10239000B800B8006F01B800B800B8004601B80036
:1023A000B800B800B800B800B800B8001901B8000B
:1023B000B800B800B800B800B800B800B800B8005D
:1023C000B800B800B800B800B800B800EA00614B27
:1023D0005B6D03F00703052BB8D85F4AB0F5004FDB
:1023E000134493F86C50C9D1202D00F22F82202D78
:1023F00000F21082DFE815F0B2037F040E020E0235
:102400004F040E020E020E02B8040E020E020E025D
:102410000E020E020E020E0219040E020E020E022F
:102420000E020E020E020E020E020E020E020E022C
:102430000E020E020E020E02EA0398683C4A0240A7
:1024400044480A439A60DA6A616A22F00F020A433A
:10245000DA62836D03F00703052B3FF677AF3E4F3B
:102460003B4493F87460202E00F2AA81012E7FF67F
:102470006DAFB31E1E2B3FF669AF01A252F823F0D9
:10248000532A04084D230408FD2904084D23040899
:102490004D2304084D230408DB2A04084D230408B7
:1024A0004D2304084D2304084D2304084D2304083C
:1024B0004D2304084D2304087B2A04084D230408F7
:1024C0004D2304084D2304084D2304084D2304081C
:1024D0004D2304084D2304084D2304084D2304080C
:1024E0004D2304084D2304084D2304084D230408FC
:1024F0004D2304084D230408F12A04080125002374
:10250000A3F110014FF6EF7291423FF61FAF226820
:10251000D3601CE70F4B5B6D03F00703052B3FF601
:1025200015AF0E4AD55C26E7F369FFCF000C0058C3
:10253000FFF4FF110010014000440040004800403B
:10254000004C004000500040001401400078004062
:10255000007C00400044025858E40A08C4E40A0819
:10256000002E00F0B281012E00F09485022E00F0C2
:10257000A785032E00F0E885042E00F00986052EBD
:1025800000F07C86062E00F0AE86072E00F00A874B
:10259000082E00F08387092E00F0A7870A2E01F08D
:1025A000158043F60953A44A0B2E18BF13466268E0
:1025B000002503EB5203B3FBF2F39BB2A0E79F4B62
:1025C0001A68920640F183811A689D4BC2F3C102DA
:1025D000D340002EEBD0012E00F00482022E00F03A
:1025E000DC84032E00F0D684042E00F04485052EF2
:1025F00000F0C286062E00F0FF86072E00F03B8614
:10260000082E00F06D86092E00F0A9860A2E00F033
:10261000E8860B2ECBD126E06846FFF78FFD626A75
:10262000019B002AC3D0012A00F0DC81022A00F0BD
:10263000B484032A00F0AE84042A00F01C85052A25
:1026400000F01685062A00F0B285072A00F01386EE
:10265000082A00F04586092A00F081860A2A00F03F
:10266000C0860B2AA3D11B0AA1E703A8FFF7A8FC89
:10267000626A049B002A9AD0D5E7FFF763FC6F4A91
:10268000704BD269616AC2F30222134493F830306E
:1026900003F01F03D84001B3012900F0FE84022992
:1026A00000F0DD84032900F0D784042900F0408580
:1026B000052900F03A85062900F02286072900F056
:1026C0006E86082900F0F686092900F026870A2977
:1026D00000F057870B2908BF000A6268002500EB4D
:1026E0005203B3FBF2F39BB20AE7FFF72BFC534A0A
:1026F000544BD269C2F302121344626A93F8303029
:1027000003F01F03D84002B3012A00F0C984022A53
:1027100000F0AB84032A00F0A584042A00F00285AF
:10272000052A00F0FC84062A00F0E485072A00F060
:102730003F86082A00F0AF86092A00F0DA860A2AC6
:1027400000F04A870B2A08BF000A626800EB5203B8
:10275000B3FBF2F39BB2D3E6402D7FF4F7AD002E2E
:1027600000F0DB80012E00F09E84022E00F0AB848E
:10277000032E00F0E584042E00F00D85052E00F0F8
:102780008085062E00F0B285072E00F0FA85082E0F
:1027900000F04786092E00F0B9860A2E00F0F78671
:1027A0000B2E0CBF80234FF4004300E7234B5B6DDF
:1027B00003F00703052B3FF6C9AD234AD55CDAE5E4
:1027C000402E7FF4C3AD002900F0B480012900F051
:1027D0007284022900F0A084032900F0D084042927
:1027E00000F04285052900F07385062900F0BD85BB
:1027F000072900F00F86082900F06B86092900F0F0
:10280000A6860A2900F0DE860B290CBF80254FF42E
:10281000004591E001250023A3F110014FF6EF726E
:1028200091423FF693AD23F00F02C3F342031343EB
:102830002268D3608BE500BF00093D0000440258C8
:102840000090D00358E40A08C4E40A08402D7FF43D
:102850007DAD002E00F0C880012E00F0C780022E52
:1028600000F08384032E00F0EE84042E00F0248513
:10287000052E00F06C85062E00F0AD85072E00F0C9
:102880002486082E00F07386092E00F097860A2E03
:1028900000F0DB860B2E0CBF4FF480704FF48030BD
:1028A000A4E0A74B5B6D03F00703052B3FF64EAD8D
:1028B000A44AD55C5FE5A24B5B6D03F03803282B7F
:1028C0003FF644ADA04AD55C55E5A04B6FE6002E1F
:1028D00000F0BF83012E00F00084022E00F053842C
:1028E000032E00F0C584042E00F0EF84052E00F0C6
:1028F0003985062E00F08B85072EE6D0082E00F0D5
:10290000C983092E00F0DC830A2E00F04184904B2D
:10291000904A0B2E18BF134649E64FF4004346E693
:10292000874B5B6D03F00703052B3FF60FAD8A4A1B
:10293000D55C20E54FF40045D4F8048008EB48034B
:10294000AB423FF603ADB5EB083F3FF6FFAC202EA0
:1029500000F2F282012E7FF6F9AC023E1E2E3FF607
:10296000F5AC01A353F826F0F52E04084D23040816
:10297000E12E04084D2304084D2304084D230408C8
:102980007F2E04084D2304084D2304084D2304081A
:102990004D2304084D2304084D2304084D23040847
:1029A000112E04084D2304084D2304084D23040868
:1029B0004D2304084D2304084D2304084D23040827
:1029C0004D2304084D2304084D2304084D23040817
:1029D0004D2304084D2304084D2304084D23040807
:1029E000792D04085B08E2E54FF480306268002529
:1029F00000EB5203B3FBF2F39BB20DE703A8FFF722
:102A0000DFFA636A049D03B3012B00F0D182022B2D
:102A100000F0C982032B00F0C382042B00F0338343
:102A2000052B00F02D83062B00F0B983072B00F057
:102A30003084082B00F06A84092B00F0A6840A2B4E
:102A400000F032850B2B00F06782002D3FF47FAC45
:102A500072E7FFF777FA3A4B1B6AC3F302133B4462
:102A600093F8303003F01F0320FA03F5636A002B5C
:102A7000CAD1002D3FF46BAC5EE7314B1A68950666
:102A800040F19D821B68334DC3F3C103DD40002933
:102A90003FF452AF012900F06383022900F05A830A
:102AA000032900F05483042900F04984052900F02B
:102AB0008B84062900F00185072900F03485082958
:102AC00000F09585092900F09D850A2900F0D78539
:102AD0000B297FF431AF2D0A2EE76846FFF72EFB56
:102AE000636A019D002B8FD1002D3FF430AC23E7AA
:102AF000002900F06282012900F0D982022900F049
:102B00000983032900F03883042900F0A0830529F4
:102B100000F0D883062900F02C84072900F069848E
:102B2000082900F0DF84092900F015850A2900F042
:102B3000618543F60955054B0B2918BF1D46FBE679
:102B400000440258C4E40A0898E40A0800093D0059
:102B500090D003000090D003C4E40A08FFF7F2F914
:102B6000A44AA54BD269C2F302121344626A93F8D5
:102B7000303003F01F03D84002B3012A00F0AB82CB
:102B8000022A00F0F582032A00F06483042A00F090
:102B90009183052A00F0CF83062A00F02584072AB6
:102BA00000F09B84082A00F0DD84092A00F0FB84F1
:102BB0000A2A00F02F850B2A08BF000A6268530812
:102BC00003EB4003B3FBF2F39BB225E6002E00F0CB
:102BD0001A82012E00F07B82022E00F0C482032EA6
:102BE00000F02F83042E00F06383052E00F09E83F7
:102BF000062E00F00684072E00F08584082E00F0D3
:102C0000AE84092E00F0D7840A2E00F0F78447F630
:102C100012237A4A0B2E18BF13466268002503EB75
:102C20005203B3FBF2F39BB2F6E5724B1A689106BE
:102C300040F1EB811A68724BC2F3C10223FA02F22F
:102C400006B3012E00F0BB82022E00F02A83032E71
:102C500000F06483042E00F0B383052E00F0168488
:102C6000062E00F06B84072E00F09784082E00F0EB
:102C7000F384092E00F0E6840A2E00F0E0840B2E87
:102C800008BF120A616800254B0803EB4203B3FB3F
:102C9000F1F39BB2C0E503A8FFF792F9626A0499C9
:102CA00002B3012A00F0F481022A00F00782032A0D
:102CB00000F04182042A00F06982052A00F0E582D2
:102CC000062A00F00983072A00F07583082A00F01D
:102CD0008683092A00F024840A2A00F055840B2AEE
:102CE00008BF090A62680025530803EB4103B3FBE0
:102CF000F2F39BB290E5FFF725F93E4A3E4BD269CD
:102D0000616AC2F30222134493F8303003F01F03C8
:102D1000D84001B3012900F0DC81022900F02A82A9
:102D2000032900F09C82042900F0C082052900F0EC
:102D30001283062900F06783072900F0DD83082944
:102D400000F00384092900F04A840A2900F067840E
:102D50000B2908BF000A62680025530803EB4003F3
:102D6000B3FBF2F39BB257E56846FFF7E7F9626AF7
:102D70000199002AB6D094E7616A002900F0278201
:102D8000012900F01283022900F09C83032900F03E
:102D9000CD83042900F00484052900F0608406290D
:102DA00000F06584072900F05E84082900F0A984FA
:102DB000092900F0A2840A2900F088841148124BE6
:102DC0000B2918BF184600214FEA5803424618182D
:102DD0004FF0000341F1000165F09EFBA0F5407348
:102DE0000A4A93423FF6B2AA23680025D860FFF74B
:102DF000AEBA00BF0044025858E40A0800127A0034
:102E00000090D00300093D000000093DFFFC0F00C9
:102E1000B34A116811F0200100F0DD811368002130
:102E2000B048C3F3C103D840636A0BB3012B00F071
:102E30005783022B00F09983032B00F0B783042BF8
:102E400000F0EB83052B00F01D84062B00F023849B
:102E5000072B00F02A84082B00F02384092B00F0B4
:102E600048840A2B00F041840B2B01D1000A002179
:102E70000902030241EA10614FEA5800A6E76846DA
:102E8000FFF75CF90198636A002102460BB3012B3E
:102E900000F09F81022B00F01382032B00F052827E
:102EA000042B00F08F82052B00F02883062B00F006
:102EB0004083072B00F06F83082B00F0A983092BB8
:102EC00000F0A3830A2B00F0C4830B2B01D1100A5E
:102ED000002162680902030241EA1061500876E7A6
:102EE00003A8FFF76DF80498636A00210246002BDF
:102EF000EFD0CCE7FFF726F8794A636A0021126A1F
:102F0000C2F30212174497F8302002F01F02D0409B
:102F10000246002BDDD0BAE72D0A002D3FF417AA98
:102F20000AE56F4B5B6D03F00703052B3FF60EAA16
:102F30006D4AD55CFFF71FBA402E7FF407AA616A7D
:102F4000002900F04181012900F02582022900F0CA
:102F50006C82032900F00F83042900F043830529C4
:102F600000F06083062900F06683072900F05E8385
:102F7000082900F0A683092900F09E830A2900F0A1
:102F8000A9830B294FF000010CBF4FF400404FF410
:102F9000000019E7554AA2FB03239B08FFF707BB74
:102FA000524BA3FB0535AD08002D3FF4D0A9C3E477
:102FB0006D08002D3FF4CBA9BEE44D4DBCE40029C3
:102FC0005CD0012900F0C980022900F0FA800329B1
:102FD00000F06981042900F0AB81052900F0ED8142
:102FE000062900F01B820729E7D008295FD00929AC
:102FF00000F090800A2900F02A813E4D394B0B29C0
:1030000018BF1D4698E43C4B07E6002E51D0012E18
:1030100000F0D380022E00F04281032E00F07C816C
:10302000042E00F0D681052E00F03B82062E00F023
:10303000A582072EE7D0082E49D0092E00F09380F4
:103040000A2E00F035812D4B2D4A0B2E18BF13464A
:10305000E3E5244BFFF7ABBA244BA3FB0030800819
:10306000FFF73BBB214BA3FB00308008FFF76DBB94
:10307000244AA2FB0323DB08FFF799BA194D5BE44E
:10308000204BA3FB0535ED08002D3FF460A953E468
:10309000490827E61C4BFFF78ABA4008FFF71DBB1B
:1030A0004008FFF752BB4FF48043FFF780BA164D3C
:1030B00042E4134BB1E54FF480453DE4890811E645
:1030C000124BFFF774BA4FF40053FFF770BA084B76
:1030D000A3E540083FE6400870E50D4BFFF767BAEF
:1030E000004402580090D003C4E40A08ABAAAAAA7C
:1030F00000093D0090D0030000127A0020A10700D3
:103100000020A107CDCCCCCC80841E0040420F0013
:103110000048E801C74D0FE44FF400550CE4C64BDE
:10312000A3FB0030C008FFF710BBC34BA3FB00306C
:10313000C008FFF7D2BAC14BA3FB01239908D1E520
:1031400041F25553FFF733BABD4BFFF730BABB4BD3
:10315000A3FB0535AD08FFF7EFBBBA4DFFF7ECBB9E
:103160006D08FFF7E9BBB84B57E54FF480403DE4ED
:10317000800823E58008EEE5B14DFFF7DDBB41F2A5
:103180005555FFF7D9BBB14BFFF711BAC908A9E5EF
:10319000AF4BFFF70CBA4FF48053FFF708BA0C237C
:1031A000B5FBF3F5002D3FF4D2A8FFF7C5BBA34A4A
:1031B000A2FB0323DB08FFF7FAB9A64B2DE5520863
:1031C00060E5A24DFFF7B8BB4FF40000FCE5A24854
:1031D000FAE540087DE6626A002A00F0A480012A30
:1031E00000F09881022A00F0AE81032A00F0F281FB
:1031F000042A00F04282052A00F03D82062A00F0EF
:103200005982072A00F05482082A00F06B82092AAA
:1032100000F065820A2A00F03B820B2A8F4A8D4B10
:103220000EBF0021032113464FEA58004246C01842
:103230004FF0000341F1000165F06EF9A0F5407315
:10324000CEE5874BE9E442F6AA20FFF7CFBB804DDD
:10325000FFF772BB794BA3FB00239808AEE4774BD2
:10326000A3FB0023980876E54FF48055FFF764BB75
:103270007C4BFFF79CB91B09FFF799B97A4BFFF715
:1032800096B940F6CC43FFF792B90A23B1FBF3F1AC
:1032900028E52D09002D3FF45AA8FFF74DBB694BD7
:1032A000BBE49208EEE46F4DFFF746BBC00852E561
:1032B000604BB2E4C00881E44FF40050FFF796BBC6
:1032C000800806E6684DFFF737BB684BFFF76FB91C
:1032D00040F6CC45FFF730BB0C23B1FBF3F101E521
:1032E0005B09FFF764B9624BFFF761B940F6AA23A7
:1032F000FFF75DB9514BA3FB0030C008FFF725BABB
:103300004E4BA3FB0030C008FFF7E7B96D09002D55
:103310003FF41DA8FFF710BB564B7EE4474BA3FBC1
:1033200002239A08AEE44D4B03217DE7524B74E42F
:103330004E4DFFF701BB0A23B0FBF3F03EE4ED086E
:10334000FFF7FABA0622002365F0E6F8C1E541F678
:103350009810FFF74BBB0A23B0FBF3F0FBE49B098B
:10336000FFF725B9454BFFF722B940F6AA25FFF72D
:10337000E3BA3F4DFFF7E0BA0A22B3FBF2F3FFF7DF
:1033800016B94FF40063FFF712B9AD09002D3EF4F2
:10339000DEAFFFF7D1BA4FF48000002114E5000939
:1033A000FFF79BB9364BFFF702B9364800210BE512
:1033B0000009FFF7CAB9090994E4304DFFF7BCBA18
:1033C000D2085FE4C00884E50A23B5FBF3F5FFF7F4
:1033D000B3BA1E4B21E441F25450FFF707BB490931
:1033E00080E4DB09FFF7E3B80C23B0FBF3F0FFF751
:1033F000E5BB234DFFF7A0BA0C22B3FBF2F3FFF7B6
:10340000D6B80F4B09E40C23B0FBF3F0A3E41E4B3A
:10341000FFF7CDB84FF40065FFF78EBA1A4DFFF7EE
:103420008BBA4FF48063FFF7C2B84FF4001000214D
:10343000CAE400BF40420F00CDCCCCCCABAAAAAAB4
:103440002A2C0A000048E80180841E000024F400B1
:1034500020A107000090D0030000093D000090D09B
:1034600054581400AAC2A200801A060000127A0062
:10347000151605005485450100350C0000A86100B3
:1034800090D003000080841E556151000A23B2FBD6
:10349000F3F2FFF7F7BB4009FFF757B99B4BFFF774
:1034A00086B89B4BFFF7B9BBED09002D3EF44FAF3B
:1034B000FFF742BA4009FFF710B90C23B5FBF3F54B
:1034C000FFF73ABA934800217EE44FF48050FFF7AB
:1034D0008DBA4FF48065FFF72FBA0009FFF76EBB76
:1034E0004008C5E4894DFFF727BA4FF22443FFF7A0
:1034F0005EB88009FFF729B900092CE40A220023ED
:1035000065F00AF8E5E4844BFFF787BB4FF40073DE
:10351000FFF74DB8814B114686E68009FFF7DDB80D
:103520008909FFF7DFBB2D09FFF706BA7C480021A8
:103530004AE40C22002364F0EFFFCAE40C23B2FB40
:10354000F3F2FFF79FBB774B6EE6400903E44FF4BD
:103550000075FFF7F1B94FF22445FFF7EDB9724B53
:10356000FFF75BBB4009FFF729BB800880E44FF4FD
:103570000060FFF73BBA6D48002125E46C4BFFF774
:103580004CBBC009FFF7A9B8C909FFF7ABBB4FF4A3
:103590008073FFF70CB800099BE41209FFF772BBB8
:1035A0006448002110E48009FFF708BB06220023CD
:1035B00064F0B2FF5CE4554BFFF72FBB4FF4806023
:1035C000FFF714BA4FF48075FFF7B6B947F6122328
:1035D000FEF7EDBF584B27E6C009FFF7B6B88009E4
:1035E000FFF7B9BB4FF480100021FFF7EDBB6D0969
:1035F000FFF7A2B947F61225FFF79EB94FF2244311
:10360000FFF70BBBAD09FFF797B99009002160E404
:1036100040095EE4C009FFF7D1BAC00828E4C00938
:10362000FFF799BB45480021FFF7CEBB4FF40020C0
:103630000021FFF7C9BB42480021FFF7C5BBD209F3
:10364000FFF720BB9209FFF71DBB4FF40070FFF797
:10365000CDB9D00900213CE45209FFF713BB39482A
:103660000021FFF7B1BB38480021FFF7ADBB374859
:103670000021FFF7A9BB364BD6E5364BD4E5ED0963
:10368000FFF75AB90A22002364F046FFFFF7F0BBA8
:10369000284B0021C8E50C22002364F03DFFFFF712
:1036A000E7BB40090021FFF7E3BB0009FFF7E0BBE0
:1036B000294BB9E5294BB7E54FF400300021FFF75E
:1036C00083BB4FF480200021FFF77EBB24480021FC
:1036D000FFF77ABB4FF480300021FFF775BB0D4B2D
:1036E0000021A1E51F4B00219EE5C0090021FFF745
:1036F000BFBB80090021FFF7BBBB1B480021FFF7C0
:1037000063BB1A480021FFF75FBB00BF48E8010018
:103710000050C3000040420F20A10700000048E80D
:10372000002A2C0A000024F490D003000055150054
:10373000AAC2A2000020A10700AAC2A200CC0C00CD
:1037400000AA0A0000801A060090D0030015160592
:103750000000A8610000127A0000093D0055615187
:1037600000127A000080841E0024F4000048E80162
:10377000374A936A03F00303032B63D0136830B412
:1037800023F08063334C1360256803E023685B1BE0
:10379000022B54D813681B01F8D4936A056823F4EC
:1037A0007C3343EA053393628368C568013B013D7E
:1037B0005B022D049BB205F4FE052B434568013DD9
:1037C000C5F308052B430569013D2D0605F0FE45AF
:1037D0002B439363D36A456923F0C0032B43D36221
:1037E000D36A856923F020032B43D362D36A23F085
:1037F0001003D362184BD56BC0692B4043EAC0035A
:10380000D363D36A43F01003D362D36AE1B10129D1
:103810000CBF43F4801343F40013D3620C4A1368C3
:1038200043F080631360216803E023685B1A022B76
:1038300005D813681B01F8D5002030BC7047032061
:1038400030BC70470120704743F40023D362E5E7A2
:1038500000440258002900240700FFFF374A936AFA
:1038600003F00303032B63D0136830B423F08053B9
:10387000334C1360256803E023685B1B022B54D88C
:1038800013689B00F8D4936A056823F07C7343EABD
:10389000055393628368C568013B013D5B022D04BB
:1038A0009BB205F4FE052B434568013DC5F30805B1
:1038B0002B430569013D2D0605F0FE452B4313649E
:1038C000D36A456923F440632B43D362D36A856985
:1038D00023F400732B43D362D36A23F48073D3623F
:1038E000184B556CC0692B4043EAC0035364D36A3C
:1038F00043F48073D362D36AE1B101290CBF43F46E
:10390000000343F08073D3620C4A136843F0805382
:103910001360216803E023685B1A022B05D8136843
:103920009B00F8D5002030BC7047032030BC7047A6
:103930000120704743F48003D362E5E70044025856
:10394000002900240700FFFF3F4AB0F1804F0368C1
:10395000A0EB0202B2FA82F230B44FEA521223D044
:1039600012BB3A4CA04247D004F58064A04243D039
:1039700004F58064A04249D004F57844A04245D0C3
:10398000334C344A904218BFA0424FD002F58062B7
:1039900090424BD04D6923F080038C680A682B431A
:1039A0000360C462826223E04C6823F07003234307
:1039B000294C041BB4FA84F46409CD6823F44073E1
:1039C0002B434D6923F080032B4303608B68C36254
:1039D0000B68836252B94CB91D4A1E4B984218BFFE
:1039E000904203D003F58063984201D10B690363D1
:1039F000012330BC43617047174C23F070034D68BE
:103A0000041B2B43B4FA84F46409D6E74D6823F011
:103A10007003114C2B43114D041BA842B4FA84F4DB
:103A20004FEA5414C9D0002CC7D1A9E7CC6823F4BD
:103A300040734A6923438C6823F0800313430A6868
:103A40000360C4628262C7E70000014000040040D6
:103A5000004001400044014000040140000C0040CF
:103A6000304B002230481B68304910B5304C82B0D2
:103A7000C4F80424C4F8FC23A0FB032394F83124E5
:103A8000C4F8F41342F20F71DB0CC4F80014013BCC
:103A9000C4F8F833002A3FD002232649234884F88B
:103AA0003134FFF751FF244B01220621372084F8DF
:103AB0003124D3F8E82042F02002C3F8E820D3F8FC
:103AC000E83003F020030193019B60F0E1F8D4F8A3
:103AD000F4334FF400001949194A4860D96841F09D
:103AE0000101D96099680A40062A06D0B2F5803FE4
:103AF00003D01A6842F001021A600020D4F8C032E4
:103B00001049114AC3F81002C4F8E802C4F8E402EC
:103B1000C3E9812102B010BD02F0FF0084F8300437
:103B2000BAE700BF0000002483DE1B4300140040FE
:103B300000290024F82C00240044025800E100E091
:103B400007000100A4430024A4330024474B10B411
:103B50001B68474CA4FB03435B0A03FB02F24AB118
:103B6000531E444C426B013B224201D0920407D5C4
:103B70005A1CF7D14FF0004318465DF8044B7047CC
:103B8000436B5C073DD4436B13F0010334D13A4BD4
:103B900083630369DBB2994231D14269374B1340E9
:103BA000002BE9D0002A30DB510031D4940031D40D
:103BB000D00031D4110132D4540133D4D00134D4E3
:103BC000110235D4540236D4900240D4D1023BD4F1
:103BD000540336D4900331D4D10344D414043FD4D5
:103BE00050043AD4910435D412F0080F14BF4FF4A6
:103BF00000034FF48033BFE701228263BCE7012357
:103C0000BAE7042213468263B6E74FF00073B3E7C6
:103C10004023B1E78023AFE74FF48073ACE74FF464
:103C20000073A9E74FF48063A6E74FF40063A3E7AE
:103C30004FF48053A0E74FF400539DE74FF48023E7
:103C40009AE74FF4003397E74FF4004394E74FF4BB
:103C5000804391E74FF480038EE74FF400138BE726
:103C60004FF4801388E74FF4002385E70000002419
:103C7000D34D621045002000C500200008E0FFFD84
:103C80000B4B01E0013B10D00269002AFADA03690C
:103C9000074A43F00103036101E0013A05D00369DB
:103CA00013F00103F9D1184670470320704700BF95
:103CB000400D030003682DE9F041C3F310050646EB
:103CC0000C4635BB654A934277D902F500329342E0
:103CD00072D902F50032934240F2B38002F500320D
:103CE000934240F2B08002F50032934240F2AD8040
:103CF00002F50032934240F2AA8002F5003293426C
:103D000040F2A780B3F1016FC0F0A58005200FF04D
:103D1000C3FD534F1D4697F84824012A00F08880C0
:103D200003F178434FF00108B3F5801F4FF0000313
:103D300087F84884C7F84C3434D302205FF046FF3C
:103D4000002850D1474A4FF00208D2F80C3143EA1C
:103D50000803C2F80C31BFF36F8FBFF34F8F04F12C
:103D6000200254F8043B944245F8043BF9D1BFF3D8
:103D70006F8FBFF34F8F40465FF028FFB8F1010F00
:103D8000384A59D0D2F80C3123F00203C2F80C3172
:103D9000002387F8483400284AD133682033336041
:103DA000BDE8F08140465FF011FFE0B92D4AD368CD
:103DB00043F00203D360CEE70125294F97F848343A
:103DC000012B0DD04FF001080023404687F84884AE
:103DD000C7F84C345FF0FAFE60B1002387F848342E
:103DE0004FF0FF30DCE700236FF0010087F8483424
:103DF000BDE8F0814046DFF86C80D8F80C3023F441
:103E0000E663C8F80C30D8F80C3043EA052545F0D5
:103E1000A405C8F80C505FF0D9FED8F80C20124B5E
:103E20001340C8F80C300028D7D133681D4677E717
:103E30006FF00100BDE8F081D36823F00203D36086
:103E4000A6E70225B9E70325B7E70425B5E7052569
:103E5000B3E70625B1E70725AFE700BFFFFF01087D
:103E60000029002400200052FBF8FFFF0148FCF766
:103E7000BBBA00BF542D0024084810B4D0F8543405
:103E8000D0F8884499691A682CB1234600F254404E
:103E90005DF8044B18475DF8044B70470029002477
:103EA0000148FCF7A1BA00BFA42D0024084810B4B3
:103EB000D0F8A434D0F8D84499691A682CB12346B4
:103EC00000F2A4405DF8044B18475DF8044B7047BE
:103ED000002900240148FCF787BA00BFF42D002414
:103EE000084810B4D0F8F434D0F8284599691A6815
:103EF0002CB1234600F2F4405DF8044B18475DF8FE
:103F0000044B7047002900242DE9F04FDFF8A0B3DF
:103F100000EB4004430083B00BEB84040193D4F81E
:103F20003031002B00F077818046B4F836015FF025
:103F3000FBFB94F834010BF011F8064694F83501B8
:103F40000BF00CF808F101038146DBB2002E00F003
:103F50009B8140F60B123372F280002800F07981C9
:103F6000037240F60B23C3803368B2889A61D9F894
:103F70000030B9F804209A6111213046092709F070
:103F800061FE1121484609F05DFE6525002E00F016
:103F900045813268B3881169194200F03F811B04E2
:103FA00093610FF003F904460D460FF0FFF8001B74
:103FB00061EB0501052871F10003F6D316B13368F2
:103FC000B2889A610FF0F2F804460D460FF0EEF851
:103FD000001B61EB0501052871F10003F6D3013FD9
:103FE000D3D11EB1B38832681B0493610FF0DEF8A1
:103FF00004460D460FF0DAF8001B61EB05010528B9
:1040000071F10003F6D3B9F1000F05D0B9F804300F
:10401000D9F800201B0493610FF0C8F804460D4640
:104020000FF0C4F8001B61EB0501052871F10003D6
:10403000F6D316B13368B2889A610FF0B7F8044628
:104040000D460FF0B3F8001B61EB0501052871F177
:104050000003F6D3B9F1000F04D0D9F80030B9F855
:1040600004209A61019B30463E218C4C03EB0806EC
:104070004FEA88050BEB860696F83B210AF048FFCD
:1040800096F83B2148463E210AF042FFD6F83021FF
:1040900008EB880304EB0313C3F85424804B9A42C3
:1040A00000F0D280FDF74EFF7E4BDA69C2F30212B8
:1040B0007D4B134493F8303003F01F03D840019B2D
:1040C00043440BEB830393F83831022B00F0C58097
:1040D000032B00F0CC80012B14BF4FF4C8714FF4B8
:1040E00048715FF091F805EB080304EB0313C3F884
:1040F000580405EB0803002204EB0313C3F85C2407
:10410000C3F86424C3F86824C3F87024C3F8742483
:104110000122C3F8602493F8952402F0FF01002ADD
:1041200000F0AF8005EB0802242704EB0212D2F85E
:10413000543482F89574D2F85814186821F07061DC
:1041400020F0010018601961996821F4004199601C
:104150004FF40041996001F10071586801435960C2
:10416000D2F86C14D868090220F40040D860D960F5
:1041700000211960186840F0010018602020C2F882
:10418000981482F89504C2F8841482F8961492F870
:1041900095042028C6B217D192F89404012813D0B0
:1041A00082F89574186820F001001860186820F4EF
:1041B0008050186018681860186840F00100186096
:1041C00082F8956482F89414019B02210127374EEE
:1041D000434445440BEB830B04EB05149BF83A0175
:1041E0005FF056FD9BF83A319BF83901022103F04C
:1041F0001F025B0907FA02F246F823205FF048FD30
:104200009BF8393103F01F025B0907FA02F246F806
:10421000232084F8507403B0BDE8F08F013D0DD029
:104220000EF0C4FF04468A460EF0C0FF001B61EB8F
:104230000A01052871F10003F6D3A7E6002E3FF42A
:10424000B0AE3268B388AAE6FDF77CFE154B1A6A59
:104250002CE73368B2889A618EE664215EF0D4FF61
:1042600005EB080304EB0313C3F8580441E7C82126
:104270005EF0CAFF05EB080304EB0313C3F8580410
:1042800037E783F894144DE700283FF475AE89F8BA
:10429000083040F60B23A9F8063068E60029002410
:1042A000001C00580044025858E40A0800E100E0ED
:1042B000000000242DE9F04F441C83B09DF83460C9
:1042C00066D00446C24D00EB80004FEA840905EB3E
:1042D000001090F85084B8F1000F5BD0002B18BF8D
:1042E000FF2A0CBF012700273E4057D190F8956464
:1042F000202E40F0C9809FB2002B00F0C18090F8C2
:104300009434012B00F0C08001232E6880F894348F
:10431000D0F8540404E02B689B1B192B00F20F818A
:10432000836913F40043F6D109EB040A4FF0210E20
:104330004FF0400C019205EB0A1B8BF895E4CBF88B
:1043400088348BF896C4CBF898340C9BABF87E7409
:104350004F00CBF87834436823F07F7323F459334C
:1043600023F47F7323F0030343EA4103994901EBEC
:104370000A1A994919434160314650465FF0FCFBE7
:10438000002840F08B81DBF85414019A8A628FE098
:104390004FF00008404603B0BDE8F08F90F8952438
:1043A000202A71D190F89424012A6DD00122D5F8E9
:1043B00000A080F89424D0F8542405E02868A0EBED
:1043C0000A00192800F27281906910F40040F5D1BA
:1043D0004F0009EB04014FF0210E1FFA83FC05EB9F
:1043E00001110C9B81F895E44FF0100EC1F8783460
:1043F00081F896E4C1F89804A1F87EC4B1F87E343F
:10440000C1F888049BB2FF2B40F28B81536873483C
:10441000034073483B431843FF23A1F87C345060AA
:1044200009EB04026B4B05EB021B019203EB021834
:10443000BBF87E34514640469BB2002B00F0818190
:104440005FF09AFB00BBDBF87824DBF8541412F819
:10445000010BBBF87C348862CBF87824013BBBF8B5
:104460007E249BB2013AABF87C3492B2ABF87E2446
:10447000BBF87E2492B2002BDAD1002AD8D074E0A7
:104480004FF40073C0F89834B5F840354FF0000889
:10449000204601339BB2A5F84035FFF735FD404675
:1044A00003B0BDE8F08F2A68921B0A2A00F2E78069
:1044B0008B6913F08003F6D009EB040205EB0212BE
:1044C000B2F87E349BB2FF2B40F202814B68454824
:1044D000034045483B431843FF23A2F87C3448601F
:1044E00009EB040305EB031B019305E0BBF87E34E5
:1044F0009BB2002B00F0FC80314650465FF03CFB45
:104500000028C1D1DBF87814DBF8542411F8010B32
:10451000BBF87C349062CBF87814013BBBF87E1476
:104520009BB20139ABF87C3489B2ABF87E14BBF88E
:104530007E1489B2002BD9D10029D7D033E0A14411
:104540002021002205EB0919D9F8983489F8942420
:104550000B43C9F8983489F8951489F8962493E7A1
:104560002A68A2EB0A020A2A77D88B6913F0800323
:10457000F6D0BBF87E349BB2FF2B47D94B681A4A62
:1045800023F07F7323F4583323F47F7323F0030362
:104590003B431A43FF23ABF87C344A6048E72B685F
:1045A0009B1B0A2B48D8906910F08000F7D0BBF80D
:1045B0007E349BB2FF2B19D953680A490B400A4934
:1045C0003B431943FF23ABF87C3451608EE700BFB7
:1045D00000290024542D002400200181009800FCB3
:1045E0000020FF81009C00FC0000FF01BBF87E342E
:1045F00059489BB25168ABF87C34DBB2014047EAC2
:1046000003430B4343F0007353606FE7BBF87E3402
:104610009BB2DAB2ABF87C344B6823F07F7323F49F
:10462000583323F47F7323F003033B4343EA0243ED
:1046300043F000734B60FBE6A14405EB0919D9F880
:10464000983489F8940443F02003C9F8983420235F
:1046500089F8953489F8960416E7A1449C4605EB41
:104660000919D9F8983489F894C443F02003C9F89B
:104670009834202389F8953489F896C404E71A46BB
:1046800009EB0403202005EB0313D3F8981401432E
:10469000C3F8981483F8950483F8962409EB04036F
:1046A000002205EB031383F89424EDE609EB0403E1
:1046B0002020002105EB0313D3F8982483F89414E9
:1046C0000243C3F8982483F8950483F89614DBE634
:1046D000B2F87E3420489BB2A2F87C34DBB24A6840
:1046E00047EA03430240134343F000734B60F7E68D
:1046F000314650465FF016FA00287FF4C5AE019BA4
:1047000005EB0315DBF854242024144ED4615168C2
:10471000314051608BF8954485F894048BF89604E9
:1047200038E6B1F87E340E489BB2A1F87C34DBB297
:10473000516847EA034301400B430A49194351605A
:104740006EE65FF0EFF900287FF49EAE019BB04665
:1047500005EB0315D6E700BF009C00FC00E800FE57
:10476000009800FC002000822DE9F04F441C83B02B
:104770009DF834B000F04A810546C34C00EB800040
:10478000AE0004EB001090F850A4BAF1000F00F056
:104790008280FF2A14BF4FF0000B0BF0010BBBF11E
:1047A000000F7CD090F89524202A69D190F89424A9
:1047B000012A65D00122276880F89424D0F8540497
:1047C00004E02268D21B192A00F22681826912F4C1
:1047D0000042F6D14FEA410871194FF0220C1FFA3E
:1047E00083FE04EB01110C9B81F895C44FF0100C73
:1047F000C1F8783481F896C4C1F89824A1F87EE411
:10480000B1F87E34C1F888249BB2FF2B00F21A81E4
:10481000B1F87E3442689BB2A1F87C34DBB29B498C
:1048200048EA03430A401343994A1A434260721903
:10483000984B04EB0219019203EB021AB9F87E348B
:104840009BB2002B00F0E481D9F854240BE0D9F896
:104850005424916911F0200140F060812368DB1B32
:104860000A2B00F275819369394650465B0700F1C7
:104870001B819369DB06ECD55FF012F90028E6D0C6
:10488000B4F8403528464FF0000A01339BB2A4F833
:104890004035FFF739FB504603B0BDE8F08F90F884
:1048A0009574202FECD10C9F002F00F0C68090F85B
:1048B0009474012FE4D00127D0F854C480F8947484
:1048C000276804E02068C01B192800F2A580DCF8E6
:1048D000180010F40040F5D106EB050E9BB24FF026
:1048E000220B4FF0400904EB0E18019288F895B4A2
:1048F00088F896944FEA4109C8F89804A8F87E34DD
:104900000C9BC8F88804C8F878346048DCF8043098
:10491000034043EA41035F4901EB0E1B5E49194323
:104920005846CCF8041039465FF026F9002840F0CC
:10493000A380D8F85414019A8A6204E02268D21B3A
:104940000A2A00F28B808B6913F04003F6D07219AB
:1049500004EB0212B2F87E349BB2FF2B40F281814D
:104960004B684A4803404D4843EA09031843FF2374
:10497000A2F87C3448607319494904EB0318019389
:10498000D8F8540404E02268D21B0A2A00F2EF800F
:10499000836913F00403F6D0426AD8F878341A70A9
:1049A000B8F87E34B8F87C24013B013A9BB292B24D
:1049B000A8F87E34D8F87834A8F87C240133C8F8F5
:1049C0007834B8F87E349BB213B1002A00F002812B
:1049D000B8F87E349BB2002BD2D1394658465FF0EE
:1049E000A1F800287FF44CAF019B2E4D04EB03127D
:1049F000D8F854342024DC6159682940596088F87B
:104A0000954482F8940488F8960444E74FF0000A2D
:104A1000504603B0BDE8F08F73192020002104EB4D
:104A20000313D3F8982483F894140243C3F898240A
:104A300083F8950483F8961422E74FF40073C0F8C6
:104A400098341DE74368114A1340144A43EA0803A7
:104A50001A43FF23A1F87C344260E8E61A46731932
:104A6000202004EB0313D3F898140143C3F89814DF
:104A700083F8950483F896247319002204EB03133A
:104A800083F89424FCE600BF00290024009800FC71
:104A900000240082542D0024002001800024FF8186
:104AA000009C00FC00E800FE526AD9F878341A70C5
:104AB000B9F87E34D9F87824013B01329BB2C9F8A9
:104AC0007824A9F87E34B9F87C34B9F87E24013B07
:104AD00092B29BB2A9F87C34002B7FF4AFAE002ACF
:104AE0003FF4ACAED9F8541403E02268D21B0A2A72
:104AF0005ED88B6913F08003F7D0B9F87E349BB28F
:104B0000FF2B45D94B685F4A13405F4A43EA0803CD
:104B10001A43FF23A9F87C344A608FE6936959074A
:104B200003D5B9F87C34002BBED120217319574826
:104B3000D16104EB03135668304050600022C3F883
:104B4000982483F8942483F8951483F8962497E6A0
:104B50002E4404EB0616D6F8983486F8941443F0E5
:104B60002003C6F89834202386F8953488E6721915
:104B700004EB0212D2F8981482F8943441F0200128
:104B8000C2F89814202182F8951482F8963477E6BA
:104B9000B9F87E343B489BB24A68A9F87C34DBB252
:104BA000024048EA0343134343F000734B6045E679
:104BB0001946731904EB0313D3F8982483F894145B
:104BC00042F02002C3F89824202283F8952483F829
:104BD000961455E6D8F8540403E02268D21B0A2A3A
:104BE000C5D8836913F08003F7D0B8F87E349BB240
:104BF000FF2B27D94FF0FF03A8F87C3443680B4004
:104C000043EA090343F0FF7343F480334360DFE674
:104C1000394650465EF086FF00287FF431AE019B96
:104C200020251A4EDA4604EB0314D9F85434DD611A
:104C300059683140596089F8955484F8940489F88A
:104C4000960428E6B8F87E3442689BB20A40A8F879
:104C50007C34DBB249EA0343134343F000734360FF
:104C6000B6E6B2F87E340A489BB2A2F87C34DBB2D6
:104C70004A6849EA034302401343064A1A434A601A
:104C800079E600BF009C00FC0000FF0100E800FE88
:104C9000009800FC002400820348D0F8603113B172
:104CA00000F5AA7018477047000000240348D0F8A8
:104CB000803113B100F5BA70184770470000002426
:104CC0000348D0F8A03113B100F5CA7018477047F7
:104CD000000000240348D0F8C03113B100F5DA70A9
:104CE00018477047000000240348D0F8E03113B1A2
:104CF00000F5EA7018477047000000240348D0F818
:104D0000003213B100F5FA70184770470000002414
:104D10000348D0F8203213B100F5057018477047EA
:104D2000000000240348D0F8403213B100F50D70A4
:104D300018477047000000240348D0F8603213B1D0
:104D400000F5157018477047000000240348D0F89C
:104D5000803213B100F51D70184770470000002421
:104D60000348D0F8A03213B100F5257018477047FA
:104D7000000000240348D0F8C03213B100F52D70B4
:104D800018477047000000240348D0F8E03213B100
:104D900000F5357018477047000000240348D0F82C
:104DA000003313B100F53D70184770470000002430
:104DB0000348D0F8203313B100F545701847704709
:104DC000000000240348D0F8403313B100F54D70C3
:104DD000184770470000002410B5446886464648CE
:104DE00020401843CEF80400DEF8000040F0010037
:104DF000CEF80000DEF8000040F40070CEF80000AD
:104E0000EBB140F2E930DEF81440A40729D5002ABE
:104E100046D012F8010B40F2E93C8EF8200002E087
:104E2000BCF1010C3ED0DEF81440E007F8D59EF846
:104E30003000C0B209B101F8010B013BE1D1DEF84D
:104E400014301B07FBD5DEF81830012043F01003A7
:104E5000CEF81830DEF8003023F00103CEF8003031
:104E600010BD0138CFD1254B9E450CD0A3F578431A
:104E70009E453DD003F580639E453BD003F57843C6
:104E80009E4533D1032000EB40031D4A002002EB76
:104E9000C302B2F8683301339BB2A2F8683310BD85
:104EA000FF20B8E7154B9E450DD0A3F578439E45EE
:104EB00019D003F580639E4512D003F578439E45D3
:104EC00014D14FF0030C0E4B0CEB4C0C002003EBF9
:104ED000CC0CBCF8683301339BB2ACF8683310BD1E
:104EE0004FF0020CEFE74FF0010CECE7002010BD93
:104EF0000120C8E70220C6E70000FFFF00300140A4
:104F0000000000242DE9F043002587B03822244812
:104F10002946244F244E254C69F004F957F82510F2
:104F20003246002301E054F83320914231D001335E
:104F30000E2BF8D1002005355EF0F6FB322DEDD1B9
:104F4000DFF860900025DFF86C80194F09F1C80682
:104F500099F8040009F114090AF000F8044698B120
:104F600003683B449B0A08EB4303B3F8EC005EF094
:104F7000DBFBA2880223206801A90595CDE9012564
:104F8000CDE90335FCF77CFEB145E1D107B0BDE8C2
:104F9000F083084A02EBC303B3F88000CBE700BFFD
:104FA000442E0024B403002400000140D4E40A0885
:104FB0000000FEA758E40A0808B5204B98420ED01E
:104FC00003F5806398420AD01D4A03F58043984256
:104FD00018BF904203D003F5806398421BD1FCF7C1
:104FE000B1FF184B1849DA69DB69C2F30222C3F337
:104FF00002230A4492F8302002F01F02D040114AE6
:105000001269C2F3C03243EAC2028B1893F800312E
:1050100003FB00F008BDFCF795FF0A4B0A49DA696B
:10502000DB69C2F3021CC3F3021301EB0C0292F81A
:10503000302002F01F02D040E1E700BF0000014035
:10504000004001400044025858E40A08024B03485B
:10505000D3F84415FCF716BA0029002400000140DB
:10506000034B4FF08040D3F84815FCF70BBA00BF54
:1050700000290024024B0348D3F84C15FCF702BA70
:105080000029002400040040024B0348D3F85015C7
:10509000FCF7F8B90029002400080040024B03483F
:1050A000D3F85415FCF7EEB900290024000C004099
:1050B000024B0348D3F86015FCF7E4B9002900243B
:1050C00000040140024B0348D3F87015FCF7DAB92D
:1050D0000029002400180040024B0348D3F87C1537
:1050E000FCF7D0B90029002400400140024B0348DE
:1050F000D3F88015FCF7C6B900290024004401400C
:10510000024B0348D3F88415FCF7BCB900290024EE
:105110000048014010B5064C0648D4F86015FCF76D
:10512000B1F9D4F874150448BDE81040FCF7AAB9E9
:105130000029002400040140001C004010B5064C6A
:105140000648D4F86015FCF79DF9D4F878150448A2
:10515000BDE81040FCF796B9002900240004014086
:1051600000200040BFF34F8F0549064BCA6802F488
:10517000E0621343CB60BFF34F8F00BFFDE700BF7A
:1051800000ED00E00400FA050021012008B50CF054
:1051900093FA72B6FFF7E6FF2DE9F043BDB0BFF317
:1051A0005F8F884C0021626A0B460D4622F48032E4
:1051B00062620A46C4F89410C4F898300133C4F807
:1051C0009C20112BC4F8A020F6D10523C4F89430FC
:1051D000636A43F480336362BFF34F8FBFF36F8F13
:1051E00079487A4A7A49121A68F052FDD4F8882030
:1051F000784B012142F47002C4F8882019601D61C7
:105200001A6842F080021A601A680A431A601A6823
:1052100042F480321A601A6842F480521A609D612A
:10522000DD611D629D62DD621D635D639D63DD6303
:105230001D645D641A6822F480221A601D664FF0B6
:105240000063654AC2F80811A36062F03DFA634A40
:10525000D36813F0040FD36840F0A080604B0021A6
:105260005E4A0391D96A21F00101D962DB6A03F039
:1052700001030393936943F440439361936903F4F7
:1052800040430393039B93699E04FCD54C22002169
:105290000DA8544C68F046FF534A42F203031168CC
:1052A00004F11002B3EB114F4FF0000318BF144686
:1052B0000793E268002A4CD1484A494B916941F46E
:1052C00040419161926902F440420792DA6A42F0E9
:1052D0000102DA62DB6A03F001030793079B3F4A8E
:1052E00093699D04FCD53B4B4FF440313F48012668
:1052F000D3F8E020002542F08002C3F8E020D3F884
:10530000E03003F0800306930323069A816108A925
:1053100008930B93CDE90965FCF7B2FC4FF4803399
:1053200008220DA80E9302231D92E2790D961E9578
:10533000CDE91633A3781893A3881993A3791A9308
:10534000237ACDE91B23FBF7E1F9032838D0A0B17C
:10535000FEE7234BD96A21F00101D962DB6A1F49BC
:1053600003F0010307938B6923F4404313438B61DC
:105370008B6903F440430793B0E71D4B1A6812F0A2
:105380000E0F39D11A6822F00F0242F002021A60A1
:105390001B6803F00F03022B2ED0FEE723F0070358
:1053A000144C43F00203D360216805E023685B1AC4
:1053B000B3F57A7F3FF652AF53689F04F6D54DE7B9
:1053C000FFF7E2FE00ED00E000000000F02D00001D
:1053D00074DF0B0800440258008000510048025856
:1053E000000400587C0400240010005C001C0258DB
:1053F00000200052002900246C4A936903F07003D6
:105400003F2B05D8936923F0700343F04003936169
:10541000664AD36903F070033F2B05D8D36923F0A4
:10542000700343F04003D361604AD36903F4E0633F
:10543000B3F5806F05D2D36923F4E06343F480634E
:10544000D3615A4A136A03F070033F2B05D8136ADD
:1054500023F0700343F040031362544B9A6914071E
:1054600005D49A6922F00F0242F008029A614F4A6D
:10547000936923F470639361136898018DD5136960
:1054800041F288304A4C23F0070343F003031361D1
:10549000216804E023685B1A834200F29F8113694C
:1054A00003F03803182BF5D1936903F00F03082B91
:1054B00005D9936923F00F0343F0080393613D4A34
:1054C000136803F00F03022B0BD9136823F00F03AB
:1054D00043F002031360136803F00F03022B00D0A4
:1054E0005BE7324A936903F07003402B05D9936957
:1054F00023F0700343F0400393612C4AD36903F017
:105500007003402B05D9D36923F0700343F04003A7
:10551000D361264AD36903F4E063B3F5806F05D9FC
:10552000D36923F4E06343F48063D3611F4A136AB1
:1055300003F07003402B00F249811C4EFCF7E0FCA5
:105540001D4BB2691D4DC2F30322134493F8303052
:1055500003F01F03D8402860D5F82C01FCF7DEFAD1
:10556000002840F03C811023149016900DA80D9354
:10557000FBF7CCF8002840F028813368104943F04D
:1055800080033360D6F8F43043F00203C6F8F430F9
:10559000D6F8F43003F002030293029B0A6A094B27
:1055A00042F001020A62216811E000BF0044025883
:1055B000002900240020005258E40A0800000024BA
:1055C0000004005880380100013B3FF4F9AE226826
:1055D0009142F9D0226823689B1A0A2BFBD94FF419
:1055E0008023A24C0DA84FF000080D934FF44013F8
:1055F000032602272E9361F067FBD4F8EC300DA848
:1056000043F00203C4F8EC30D4F8EC3003F00203AA
:105610000193019BD4F8943043F00203C4F8943012
:10562000D4F8943023F00203C4F89430904B1A68F5
:1056300041F20303B3EB124F8E4B8F4A38BF1A4629
:105640008E4B5A601A6822F47C5242F400521A605F
:105650001A6842F060021A600D96CDE92A8861F05E
:1056600033FB4FF4E0430DA8CDF8E0800D93CDE976
:10567000248861F029FB18230DA8CDF8B4800D9380
:10568000CDF8C88061F020FB4FF4803305210DA8D0
:1056900011960D9320934FF4FA73CDF85480109720
:1056A000CDE90E130423CDE91388129361F00CFBAE
:1056B000D4F8E03008A9724843F00103C4F8E030A0
:1056C000D4F8E030099703F001030B96CDF8288059
:1056D0000593059B4FF48073CDF830800893FCF759
:1056E000CFFA236900F5006023F0FE7343F088735E
:1056F0002361D4F8E03043F00403C4F8E030D4F878
:10570000E030099703F004030B96CDF8288004934A
:105710004FF40073049A0893CDF83080FCF7B0FA88
:10572000236923F07E4343F0FC432361FCF7E8FB4D
:105730002860BFF35F8F534D4646534C01276B6A79
:1057400023F480336B62C5F8948023E0002944D0B1
:10575000D4F80090637A103414F8060C1B0643EA60
:10576000007343EA410314F8051C43EA814314F82B
:10577000041C43EA414314F8031CC5F89860013641
:1057800043EA0143C5F89C90032E43F00103C5F89A
:10579000A03025D06368217A002BD7D0D4F80090B0
:1057A0000029D7D129F01F08A3EB0803202B38BF0D
:1057B00020231846984668F065FA431E07FA03F15D
:1057C000884508BF0346D9B2C4E7FEE7136A23F051
:1057D000700343F040031362AFE6FEE7DDE5DCE56E
:1057E0000523C5F894306B6A43F480336B62BFF3D2
